{
  "contractName": "Persona",
  "abi": [
    {
      "inputs": [
        {
          "internalType": "address",
          "name": "_registry",
          "type": "address"
        },
        {
          "internalType": "bytes32",
          "name": "_name",
          "type": "bytes32"
        }
      ],
      "stateMutability": "nonpayable",
      "type": "constructor"
    },
    {
      "anonymous": false,
      "inputs": [
        {
          "indexed": true,
          "internalType": "address",
          "name": "previousOwner",
          "type": "address"
        },
        {
          "indexed": true,
          "internalType": "address",
          "name": "newOwner",
          "type": "address"
        }
      ],
      "name": "OwnershipTransferred",
      "type": "event"
    },
    {
      "anonymous": false,
      "inputs": [
        {
          "indexed": true,
          "internalType": "address",
          "name": "validatorAddress",
          "type": "address"
        },
        {
          "indexed": true,
          "internalType": "bytes32",
          "name": "documentType",
          "type": "bytes32"
        },
        {
          "indexed": false,
          "internalType": "string[]",
          "name": "documentLinks",
          "type": "string[]"
        },
        {
          "indexed": false,
          "internalType": "string",
          "name": "documentValue",
          "type": "string"
        }
      ],
      "name": "personaAskToValidate",
      "type": "event"
    },
    {
      "anonymous": false,
      "inputs": [
        {
          "indexed": true,
          "internalType": "bytes32",
          "name": "documentType",
          "type": "bytes32"
        },
        {
          "indexed": false,
          "internalType": "uint8",
          "name": "status",
          "type": "uint8"
        },
        {
          "indexed": true,
          "internalType": "uint256",
          "name": "timestamp",
          "type": "uint256"
        },
        {
          "indexed": false,
          "internalType": "string",
          "name": "signature",
          "type": "string"
        }
      ],
      "name": "validatorAnswerValidation",
      "type": "event"
    },
    {
      "inputs": [
        {
          "internalType": "uint256",
          "name": "",
          "type": "uint256"
        }
      ],
      "name": "certificates",
      "outputs": [
        {
          "internalType": "address",
          "name": "issuer",
          "type": "address"
        },
        {
          "internalType": "bytes32",
          "name": "givenName",
          "type": "bytes32"
        },
        {
          "internalType": "string",
          "name": "value",
          "type": "string"
        },
        {
          "internalType": "string",
          "name": "content",
          "type": "string"
        },
        {
          "internalType": "string",
          "name": "signature",
          "type": "string"
        },
        {
          "internalType": "uint256",
          "name": "timestamp",
          "type": "uint256"
        }
      ],
      "stateMutability": "view",
      "type": "function"
    },
    {
      "inputs": [
        {
          "internalType": "uint256",
          "name": "",
          "type": "uint256"
        }
      ],
      "name": "documents",
      "outputs": [
        {
          "internalType": "bytes32",
          "name": "",
          "type": "bytes32"
        }
      ],
      "stateMutability": "view",
      "type": "function"
    },
    {
      "inputs": [],
      "name": "name",
      "outputs": [
        {
          "internalType": "bytes32",
          "name": "",
          "type": "bytes32"
        }
      ],
      "stateMutability": "view",
      "type": "function"
    },
    {
      "inputs": [],
      "name": "owner",
      "outputs": [
        {
          "internalType": "address",
          "name": "",
          "type": "address"
        }
      ],
      "stateMutability": "view",
      "type": "function"
    },
    {
      "inputs": [
        {
          "internalType": "bytes32",
          "name": "",
          "type": "bytes32"
        }
      ],
      "name": "personaInfos",
      "outputs": [
        {
          "internalType": "string",
          "name": "baseValue",
          "type": "string"
        },
        {
          "internalType": "bytes32",
          "name": "documentValueHash",
          "type": "bytes32"
        }
      ],
      "stateMutability": "view",
      "type": "function"
    },
    {
      "inputs": [],
      "name": "registry",
      "outputs": [
        {
          "internalType": "address",
          "name": "",
          "type": "address"
        }
      ],
      "stateMutability": "view",
      "type": "function"
    },
    {
      "inputs": [],
      "name": "renounceOwnership",
      "outputs": [],
      "stateMutability": "nonpayable",
      "type": "function"
    },
    {
      "inputs": [
        {
          "internalType": "address",
          "name": "newOwner",
          "type": "address"
        }
      ],
      "name": "transferOwnership",
      "outputs": [],
      "stateMutability": "nonpayable",
      "type": "function"
    },
    {
      "inputs": [],
      "name": "getDocuments",
      "outputs": [
        {
          "internalType": "bytes32[]",
          "name": "",
          "type": "bytes32[]"
        }
      ],
      "stateMutability": "view",
      "type": "function"
    },
    {
      "inputs": [
        {
          "internalType": "bytes32",
          "name": "documentType",
          "type": "bytes32"
        },
        {
          "internalType": "address",
          "name": "validator",
          "type": "address"
        }
      ],
      "name": "getValidationStatus",
      "outputs": [
        {
          "internalType": "uint8",
          "name": "",
          "type": "uint8"
        },
        {
          "internalType": "uint256",
          "name": "",
          "type": "uint256"
        },
        {
          "internalType": "string",
          "name": "",
          "type": "string"
        }
      ],
      "stateMutability": "view",
      "type": "function"
    },
    {
      "inputs": [
        {
          "internalType": "bytes32",
          "name": "documentType",
          "type": "bytes32"
        }
      ],
      "name": "getValidators",
      "outputs": [
        {
          "internalType": "address[]",
          "name": "",
          "type": "address[]"
        }
      ],
      "stateMutability": "view",
      "type": "function"
    },
    {
      "inputs": [
        {
          "internalType": "bytes32",
          "name": "documentType",
          "type": "bytes32"
        }
      ],
      "name": "getDocumentHashes",
      "outputs": [
        {
          "internalType": "bytes32[]",
          "name": "",
          "type": "bytes32[]"
        }
      ],
      "stateMutability": "view",
      "type": "function"
    },
    {
      "inputs": [
        {
          "internalType": "bytes32",
          "name": "documentType",
          "type": "bytes32"
        }
      ],
      "name": "personaFieldExists",
      "outputs": [
        {
          "internalType": "bool",
          "name": "",
          "type": "bool"
        }
      ],
      "stateMutability": "view",
      "type": "function"
    },
    {
      "inputs": [],
      "name": "getCertificatesCount",
      "outputs": [
        {
          "internalType": "uint256",
          "name": "",
          "type": "uint256"
        }
      ],
      "stateMutability": "view",
      "type": "function"
    },
    {
      "inputs": [],
      "name": "getPendingCertificatesCount",
      "outputs": [
        {
          "internalType": "uint256",
          "name": "",
          "type": "uint256"
        }
      ],
      "stateMutability": "view",
      "type": "function"
    },
    {
      "inputs": [
        {
          "internalType": "uint256",
          "name": "index",
          "type": "uint256"
        }
      ],
      "name": "getCertificate",
      "outputs": [
        {
          "internalType": "address",
          "name": "",
          "type": "address"
        },
        {
          "internalType": "bytes32",
          "name": "",
          "type": "bytes32"
        },
        {
          "internalType": "string",
          "name": "",
          "type": "string"
        },
        {
          "internalType": "string",
          "name": "",
          "type": "string"
        },
        {
          "internalType": "string",
          "name": "",
          "type": "string"
        },
        {
          "internalType": "uint256",
          "name": "",
          "type": "uint256"
        }
      ],
      "stateMutability": "view",
      "type": "function"
    },
    {
      "inputs": [],
      "name": "getLastPendingCertificate",
      "outputs": [
        {
          "internalType": "address",
          "name": "",
          "type": "address"
        },
        {
          "internalType": "bytes32",
          "name": "",
          "type": "bytes32"
        },
        {
          "internalType": "string",
          "name": "",
          "type": "string"
        },
        {
          "internalType": "string",
          "name": "",
          "type": "string"
        },
        {
          "internalType": "string",
          "name": "",
          "type": "string"
        },
        {
          "internalType": "uint256",
          "name": "",
          "type": "uint256"
        }
      ],
      "stateMutability": "view",
      "type": "function"
    },
    {
      "inputs": [
        {
          "internalType": "bytes32",
          "name": "_name",
          "type": "bytes32"
        }
      ],
      "name": "changeName",
      "outputs": [],
      "stateMutability": "nonpayable",
      "type": "function"
    },
    {
      "inputs": [
        {
          "internalType": "address",
          "name": "newOwner",
          "type": "address"
        }
      ],
      "name": "transferOwnershipPersona",
      "outputs": [],
      "stateMutability": "nonpayable",
      "type": "function"
    },
    {
      "inputs": [
        {
          "internalType": "bytes32",
          "name": "documentType",
          "type": "bytes32"
        },
        {
          "internalType": "string",
          "name": "baseValue",
          "type": "string"
        },
        {
          "internalType": "bytes32",
          "name": "documentValueHash",
          "type": "bytes32"
        },
        {
          "internalType": "bytes32[]",
          "name": "documentHashes",
          "type": "bytes32[]"
        }
      ],
      "name": "addField",
      "outputs": [],
      "stateMutability": "nonpayable",
      "type": "function"
    },
    {
      "inputs": [
        {
          "internalType": "bytes32",
          "name": "documentType",
          "type": "bytes32"
        },
        {
          "internalType": "string",
          "name": "baseValue",
          "type": "string"
        },
        {
          "internalType": "bytes32",
          "name": "documentValueHash",
          "type": "bytes32"
        },
        {
          "internalType": "bytes32[]",
          "name": "_documentHashes",
          "type": "bytes32[]"
        }
      ],
      "name": "replaceField",
      "outputs": [],
      "stateMutability": "nonpayable",
      "type": "function"
    },
    {
      "inputs": [
        {
          "internalType": "address",
          "name": "validatorAddress",
          "type": "address"
        },
        {
          "internalType": "bytes32",
          "name": "documentType",
          "type": "bytes32"
        },
        {
          "internalType": "string[]",
          "name": "documentLinks",
          "type": "string[]"
        },
        {
          "internalType": "string",
          "name": "documentValue",
          "type": "string"
        }
      ],
      "name": "askToValidate",
      "outputs": [],
      "stateMutability": "nonpayable",
      "type": "function"
    },
    {
      "inputs": [
        {
          "internalType": "bytes32",
          "name": "documentType",
          "type": "bytes32"
        },
        {
          "internalType": "uint8",
          "name": "status",
          "type": "uint8"
        },
        {
          "internalType": "uint256",
          "name": "timestamp",
          "type": "uint256"
        },
        {
          "internalType": "string",
          "name": "signature",
          "type": "string"
        }
      ],
      "name": "validatorAnswer",
      "outputs": [],
      "stateMutability": "nonpayable",
      "type": "function"
    },
    {
      "inputs": [
        {
          "internalType": "bool",
          "name": "approved",
          "type": "bool"
        }
      ],
      "name": "processLastPendingCertificate",
      "outputs": [],
      "stateMutability": "nonpayable",
      "type": "function"
    },
    {
      "inputs": [
        {
          "internalType": "address",
          "name": "persona",
          "type": "address"
        },
        {
          "internalType": "bytes32",
          "name": "givenName",
          "type": "bytes32"
        },
        {
          "internalType": "string",
          "name": "value",
          "type": "string"
        },
        {
          "internalType": "string",
          "name": "content",
          "type": "string"
        },
        {
          "internalType": "string",
          "name": "signature",
          "type": "string"
        }
      ],
      "name": "giveCertificateTo",
      "outputs": [],
      "stateMutability": "nonpayable",
      "type": "function"
    },
    {
      "inputs": [
        {
          "internalType": "bytes32",
          "name": "givenName",
          "type": "bytes32"
        },
        {
          "internalType": "string",
          "name": "value",
          "type": "string"
        },
        {
          "internalType": "string",
          "name": "content",
          "type": "string"
        },
        {
          "internalType": "string",
          "name": "signature",
          "type": "string"
        }
      ],
      "name": "giveCertificate",
      "outputs": [],
      "stateMutability": "nonpayable",
      "type": "function"
    }
  ],
  "bytecode": "0x60806040523480156200001157600080fd5b5060405162002806380380620028068339810160408190526200003491620000b7565b600062000040620000b3565b600080546001600160a01b0319166001600160a01b0383169081178255604051929350917f8be0079c531659141344cd1fd0a4f28419497f9722a3daafe3b4186f6b6457e0908290a350600255600180546001600160a01b0319166001600160a01b0392909216919091179055620000f1565b3390565b60008060408385031215620000ca578182fd5b82516001600160a01b0381168114620000e1578283fd5b6020939093015192949293505050565b61270580620001016000396000f3fe608060405234801561001057600080fd5b506004361061016e5760003560e01c80637b103999116100ce578063ba70a2ca11610087578063ba70a2ca146102e1578063c2ed2b05146102f4578063cd0b1c9c14610307578063dfc684bd14610327578063e3358c1314610347578063ef2d870014610369578063f2fde38b146103715761016e565b80637b10399914610275578063832f17bb1461028a578063898855ed1461029d5780638da5cb5b146102b05780638ddd0a86146102b85780638fb03a02146102d95761016e565b806362d8a3cc1161012b57806362d8a3cc14610211578063663b3e221461022457806367da2611146102375780636e41297a1461024a578063702713051461025257806371283c4514610265578063715018a61461026d5761016e565b806302d2fdc81461017357806306fdde03146101885780632b3cdc7b146101a65780633dd972ef146101b957806351640fee146101d95780635932ec11146101fe575b600080fd5b610186610181366004611d52565b610384565b005b610190610652565b60405161019d91906122cb565b60405180910390f35b6101866101b4366004611d30565b610658565b6101cc6101c7366004611efa565b610745565b60405161019d919061225a565b6101ec6101e7366004611efa565b6107aa565b60405161019d969594939291906121ac565b61018661020c366004611ec2565b610a84565b61018661021f366004611f3e565b610c31565b6101ec610232366004611efa565b610d0e565b610186610245366004611e23565b610efc565b610190610f9c565b610186610260366004611f3e565b610fda565b6101ec6110e4565b6101866113fc565b61027d61147b565b60405161019d919061217e565b610186610298366004612006565b61148a565b6101866102ab366004611efa565b611571565b61027d6115ab565b6102cb6102c6366004611efa565b6115ba565b60405161019d929190612396565b610190611661565b6101866102ef366004612087565b611667565b610190610302366004611efa565b6117f2565b61031a610315366004611efa565b611810565b60405161019d919061220d565b61033a610335366004611efa565b61187e565b60405161019d91906122c0565b61035a610355366004611f12565b611895565b60405161019d9392919061265a565b6101cc611993565b61018661037f366004611d30565b6119eb565b61038c611aa1565b6000546001600160a01b039081169116146103c25760405162461bcd60e51b81526004016103b9906125be565b60405180910390fd5b6103cb8361187e565b6103e75760405162461bcd60e51b81526004016103b990612447565b60015460405163facd743b60e01b81526001600160a01b039091169063facd743b9061041790879060040161217e565b602060405180830381600087803b15801561043157600080fd5b505af1158015610445573d6000803e3d6000fd5b505050506040513d601f19601f820116820180604052508101906104699190611ede565b6104855760405162461bcd60e51b81526004016103b99061252e565b60008381526004602081815260408084206001600160a01b0389168552909201905281205460ff1660038111156104b857fe5b146104d55760405162461bcd60e51b81526004016103b9906123b8565b60008381526004602081905260409182902060018101549251633a9e96d360e21b81526001600160a01b0388169363ea7a5b4c936105209389938993600290920192899291016122d4565b600060405180830381600087803b15801561053a57600080fd5b505af115801561054e573d6000803e3d6000fd5b505050600084815260046020818152604080842060038082018054600180820183559188528588200180546001600160a01b0319166001600160a01b038e16908117909155845160608101865282815280870189905285518088018752898152818701529088529290950190935293208351815494955090939092849260ff199092169184908111156105dd57fe5b02179055506020828101516001830155604083015180516106049260028501920190611aa5565b5090505082846001600160a01b03167f5cedd8be1da2b9fe1bed996899397b356dc1a050f07ba0793383ad2dc898bd958484604051610644929190612292565b60405180910390a350505050565b60025481565b610660611aa1565b6000546001600160a01b0390811691161461068d5760405162461bcd60e51b81526004016103b9906125be565b600354156106ad5760405162461bcd60e51b81526004016103b9906123fd565b6001546001600160a01b03166106c1611aa1565b6001600160a01b031614610739576001546001600160a01b03166354184e386106e86115ab565b836040518363ffffffff1660e01b8152600401610706929190612192565b600060405180830381600087803b15801561072057600080fd5b505af1158015610734573d6000803e3d6000fd5b505050505b610742816119eb565b50565b60008181526004602090815260409182902060020180548351818402810184019094528084526060939283018282801561079e57602002820191906000526020600020905b81548152602001906001019080831161078a575b50505050509050919050565b600080606080606060008060058054905090508088106107fe575050604080516020808201835260008083528351808301855281815284519283019094528082529750879650909450909250905083610a7b565b6005888154811061080b57fe5b6000918252602090912060069091020154600580546001600160a01b03909216918a90811061083657fe5b90600052602060002090600602016001015460058a8154811061085557fe5b906000526020600020906006020160020160058b8154811061087357fe5b906000526020600020906006020160030160058c8154811061089157fe5b906000526020600020906006020160040160058d815481106108af57fe5b600091825260209182902060056006909202010154845460408051601f60026000196101006001871615020190941693909304928301859004850281018501909152818152919286919083018282801561094a5780601f1061091f5761010080835404028352916020019161094a565b820191906000526020600020905b81548152906001019060200180831161092d57829003601f168201915b5050865460408051602060026001851615610100026000190190941693909304601f8101849004840282018401909252818152959950889450925084019050828280156109d85780601f106109ad576101008083540402835291602001916109d8565b820191906000526020600020905b8154815290600101906020018083116109bb57829003601f168201915b5050855460408051602060026001851615610100026000190190941693909304601f810184900484028201840190925281815295985087945092508401905082828015610a665780601f10610a3b57610100808354040283529160200191610a66565b820191906000526020600020905b815481529060010190602001808311610a4957829003601f168201915b50505050509150965096509650965096509650505b91939550919395565b610a8c611aa1565b6000546001600160a01b03908116911614610ab95760405162461bcd60e51b81526004016103b9906125be565b600654610ad85760405162461bcd60e51b81526004016103b9906124c4565b8015610bc35760068054600591906000198101908110610af457fe5b6000918252602080832084546001818101875595855291909320600692830290930180549190920290920180546001600160a01b0319166001600160a01b039093169290921782558281015482840155600280820180549294610b6893838601939181161561010002600019011604611b23565b5060038201816003019080546001816001161561010002031660029004610b90929190611b23565b5060048201816004019080546001816001161561010002031660029004610bb8929190611b23565b506005918201549101555b6006805480610bce57fe5b60008281526020812060066000199093019283020180546001600160a01b03191681556001810182905590610c066002830182611b98565b610c14600383016000611b98565b610c22600483016000611b98565b60058201600090555050905550565b610c39611aa1565b6000546001600160a01b03908116911614610c665760405162461bcd60e51b81526004016103b9906125be565b81610c835760405162461bcd60e51b81526004016103b9906125f3565b60008481526004602090815260409091208451610ca292860190611aa5565b5060008481526004602090815260409091208251610cc892600290920191840190611bdc565b5060008481526004602081815260408084206001810187905581518581528084019283905294899052929091529151610d079260039092019190611c16565b5050505050565b60058181548110610d1b57fe5b6000918252602091829020600691909102018054600180830154600280850180546040805161010096831615969096026000190190911692909204601f81018890048802850188019092528184526001600160a01b0390941696509094919291830182828015610dcc5780601f10610da157610100808354040283529160200191610dcc565b820191906000526020600020905b815481529060010190602001808311610daf57829003601f168201915b5050505060038301805460408051602060026001851615610100026000190190941693909304601f8101849004840282018401909252818152949594935090830182828015610e5c5780601f10610e3157610100808354040283529160200191610e5c565b820191906000526020600020905b815481529060010190602001808311610e3f57829003601f168201915b5050505060048301805460408051602060026001851615610100026000190190941693909304601f8101849004840282018401909252818152949594935090830182828015610eec5780601f10610ec157610100808354040283529160200191610eec565b820191906000526020600020905b815481529060010190602001808311610ecf57829003601f168201915b5050505050908060050154905086565b610f04611aa1565b6000546001600160a01b03908116911614610f315760405162461bcd60e51b81526004016103b9906125be565b60405163832f17bb60e01b81526001600160a01b0386169063832f17bb90610f6390879087908790879060040161234c565b600060405180830381600087803b158015610f7d57600080fd5b505af1158015610f91573d6000803e3d6000fd5b505050505050505050565b6000610fa6611aa1565b6000546001600160a01b03908116911614610fd35760405162461bcd60e51b81526004016103b9906125be565b5060065490565b610fe2611aa1565b6000546001600160a01b0390811691161461100f5760405162461bcd60e51b81526004016103b9906125be565b6110188461187e565b156110355760405162461bcd60e51b81526004016103b9906124f9565b816110525760405162461bcd60e51b81526004016103b9906125f3565b6000848152600460209081526040909120845161107192860190611aa5565b506000848152600460209081526040909120825161109792600290920191840190611bdc565b5050600083815260046020526040812060019081019290925560038054928301815590527fc2575a0e9e593c00f959f8c92f12db2869c3395a3b0502d05e2516446f71f85b019190915550565b600080606080606060006110f6611aa1565b6000546001600160a01b039081169116146111235760405162461bcd60e51b81526004016103b9906125be565b600654806111655750506040805160208082018352600080835283518083018552818152845192830190945280825297508796509094509092509050836113f4565b6006600182038154811061117557fe5b600091825260209091206006918202015481546001600160a01b03909116919060001984019081106111a357fe5b906000526020600020906006020160010154600660018403815481106111c557fe5b9060005260206000209060060201600201600660018503815481106111e657fe5b90600052602060002090600602016003016006600186038154811061120757fe5b90600052602060002090600602016004016006600187038154811061122857fe5b600091825260209182902060056006909202010154845460408051601f6002600019610100600187161502019094169390930492830185900485028101850190915281815291928691908301828280156112c35780601f10611298576101008083540402835291602001916112c3565b820191906000526020600020905b8154815290600101906020018083116112a657829003601f168201915b5050865460408051602060026001851615610100026000190190941693909304601f8101849004840282018401909252818152959950889450925084019050828280156113515780601f1061132657610100808354040283529160200191611351565b820191906000526020600020905b81548152906001019060200180831161133457829003601f168201915b5050855460408051602060026001851615610100026000190190941693909304601f8101849004840282018401909252818152959850879450925084019050828280156113df5780601f106113b4576101008083540402835291602001916113df565b820191906000526020600020905b8154815290600101906020018083116113c257829003601f168201915b50505050509150965096509650965096509650505b909192939495565b611404611aa1565b6000546001600160a01b039081169116146114315760405162461bcd60e51b81526004016103b9906125be565b600080546040516001600160a01b03909116907f8be0079c531659141344cd1fd0a4f28419497f9722a3daafe3b4186f6b6457e0908390a3600080546001600160a01b0319169055565b6001546001600160a01b031681565b60066040518060c0016040528061149f611aa1565b6001600160a01b0390811682526020808301899052604080840189905260608401889052608084018790524260a090940193909352845460018082018755600096875295829020855160069092020180546001600160a01b031916919093161782558381015194820194909455908201518051929391926115269260028501920190611aa5565b5060608201518051611542916003840191602090910190611aa5565b506080820151805161155e916004840191602090910190611aa5565b5060a08201518160050155505050505050565b611579611aa1565b6000546001600160a01b039081169116146115a65760405162461bcd60e51b81526004016103b9906125be565b600255565b6000546001600160a01b031690565b60046020908152600091825260409182902080548351601f600260001961010060018616150201909316929092049182018490048402810184019094528084529092918391908301828280156116515780601f1061162657610100808354040283529160200191611651565b820191906000526020600020905b81548152906001019060200180831161163457829003601f168201915b5050505050908060010154905082565b60055490565b6001600085815260046020819052604082200190611683611aa1565b6001600160a01b0316815260208101919091526040016000205460ff1660038111156116ab57fe5b146116c85760405162461bcd60e51b81526004016103b99061257d565b8260ff1660038111156116d757fe5b6000858152600460208190526040822001906116f1611aa1565b6001600160a01b031681526020810191909152604001600020805460ff1916600183600381111561171e57fe5b0217905550600084815260046020819052604082208492910190611740611aa1565b6001600160a01b03166001600160a01b031681526020019081526020016000206001018190555080600460008681526020019081526020016000206004016000611788611aa1565b6001600160a01b03166001600160a01b0316815260200190815260200160002060020190805190602001906117be929190611aa5565b5081847f83638973c67059322c411da515ea8879e6e156a65d5d1a31e4a346f19364031e8584604051610644929190612636565b600381815481106117ff57fe5b600091825260209091200154905081565b60008181526004602090815260409182902060030180548351818402810184019094528084526060939283018282801561079e57602002820191906000526020600020905b81546001600160a01b031681526001909101906020018083116118555750505050509050919050565b600090815260046020526040902060010154151590565b60008281526004602081815260408084206001600160a01b03861685529092019052812054819060609060ff1660038111156118cd57fe5b60008681526004602081815260408084206001600160a01b038a1685529092018152918190206001808201546002928301805485519381161561010002600019011693909304601f8101869004860283018601909452838252939192909183919083018282801561197f5780601f106119545761010080835404028352916020019161197f565b820191906000526020600020905b81548152906001019060200180831161196257829003601f168201915b505050505090509250925092509250925092565b606060038054806020026020016040519081016040528092919081815260200182805480156119e157602002820191906000526020600020905b8154815260200190600101908083116119cd575b5050505050905090565b6119f3611aa1565b6000546001600160a01b03908116911614611a205760405162461bcd60e51b81526004016103b9906125be565b6001600160a01b038116611a465760405162461bcd60e51b81526004016103b99061247e565b600080546040516001600160a01b03808516939216917f8be0079c531659141344cd1fd0a4f28419497f9722a3daafe3b4186f6b6457e091a3600080546001600160a01b0319166001600160a01b0392909216919091179055565b3390565b828054600181600116156101000203166002900490600052602060002090601f016020900481019282601f10611ae657805160ff1916838001178555611b13565b82800160010185558215611b13579182015b82811115611b13578251825591602001919060010190611af8565b50611b1f929150611c77565b5090565b828054600181600116156101000203166002900490600052602060002090601f016020900481019282601f10611b5c5780548555611b13565b82800160010185558215611b1357600052602060002091601f016020900482015b82811115611b13578254825591600101919060010190611b7d565b50805460018160011615610100020316600290046000825580601f10611bbe5750610742565b601f0160209004906000526020600020908101906107429190611c77565b828054828255906000526020600020908101928215611b135791602002820182811115611b13578251825591602001919060010190611af8565b828054828255906000526020600020908101928215611c6b579160200282015b82811115611c6b57825182546001600160a01b0319166001600160a01b03909116178255602090920191600190910190611c36565b50611b1f929150611c8c565b5b80821115611b1f5760008155600101611c78565b5b80821115611b1f5780546001600160a01b0319168155600101611c8d565b80356001600160a01b0381168114611cc257600080fd5b92915050565b600082601f830112611cd8578081fd5b81356001600160401b03811115611ced578182fd5b611d00601f8201601f191660200161267c565b9150808252836020828501011115611d1757600080fd5b8060208401602084013760009082016020015292915050565b600060208284031215611d41578081fd5b611d4b8383611cab565b9392505050565b60008060008060808587031215611d67578283fd5b611d718686611cab565b9350602080860135935060408601356001600160401b0380821115611d94578485fd5b818801915088601f830112611da7578485fd5b8135611dba611db5826126a2565b61267c565b81815284810190848601885b84811015611def57611ddd8e8984358a0101611cc8565b84529287019290870190600101611dc6565b509097505050506060880135925080831115611e09578384fd5b5050611e1787828801611cc8565b91505092959194509250565b600080600080600060a08688031215611e3a578081fd5b611e448787611cab565b94506020860135935060408601356001600160401b0380821115611e66578283fd5b611e7289838a01611cc8565b94506060880135915080821115611e87578283fd5b611e9389838a01611cc8565b93506080880135915080821115611ea8578283fd5b50611eb588828901611cc8565b9150509295509295909350565b600060208284031215611ed3578081fd5b8135611d4b816126c1565b600060208284031215611eef578081fd5b8151611d4b816126c1565b600060208284031215611f0b578081fd5b5035919050565b60008060408385031215611f24578182fd5b82359150611f358460208501611cab565b90509250929050565b60008060008060808587031215611f53578384fd5b843593506020808601356001600160401b0380821115611f71578586fd5b611f7d89838a01611cc8565b9550604088013594506060880135915080821115611f99578384fd5b508601601f81018813611faa578283fd5b8035611fb8611db5826126a2565b81815283810190838501858402850186018c1015611fd4578687fd5b8694505b83851015611ff6578035835260019490940193918501918501611fd8565b50979a9699509497505050505050565b6000806000806080858703121561201b578384fd5b8435935060208501356001600160401b0380821115612038578485fd5b61204488838901611cc8565b94506040870135915080821115612059578384fd5b61206588838901611cc8565b9350606087013591508082111561207a578283fd5b50611e1787828801611cc8565b6000806000806080858703121561209c578384fd5b84359350602085013560ff811681146120b3578384fd5b92506040850135915060608501356001600160401b038111156120d4578182fd5b611e1787828801611cc8565b6000815180845260208085018081965082840281019150828601855b85811015612126578284038952612114848351612133565b988501989350908401906001016120fc565b5091979650505050505050565b60008151808452815b818110156121585760208185018101518683018201520161213c565b818111156121695782602083870101525b50601f01601f19169290920160200192915050565b6001600160a01b0391909116815260200190565b6001600160a01b0392831681529116602082015260400190565b600060018060a01b038816825286602083015260c060408301526121d360c0830187612133565b82810360608401526121e58187612133565b905082810360808401526121f98186612133565b9150508260a0830152979650505050505050565b6020808252825182820181905260009190848201906040850190845b8181101561224e5783516001600160a01b031683529284019291840191600101612229565b50909695505050505050565b6020808252825182820181905260009190848201906040850190845b8181101561224e57835183529284019291840191600101612276565b6000604082526122a560408301856120e0565b82810360208401526122b78185612133565b95945050505050565b901515815260200190565b90815260200190565b6000868252602060a0818401526122ee60a08401886120e0565b8381036040850152865480825287845282842091830190845b8181101561232357835483526001938401939285019201612307565b505084810360608601526123378188612133565b93505050508260808301529695505050505050565b6000858252608060208301526123656080830186612133565b82810360408401526123778186612133565b9050828103606084015261238b8185612133565b979650505050505050565b6000604082526123a96040830185612133565b90508260208301529392505050565b60208082526025908201527f506572736f6e613a2056616c69646174696f6e20616c72656164792072657175604082015264195cdd195960da1b606082015260800190565b6020808252602a908201527f506572736f6e613a20506572736f6e61206d75737420626520656d707479207460408201526937903a3930b739b332b960b11b606082015260800190565b6020808252601b908201527f506572736f6e613a20446f63756d656e74206e6f742061646465640000000000604082015260600190565b60208082526026908201527f4f776e61626c653a206e6577206f776e657220697320746865207a65726f206160408201526564647265737360d01b606082015260800190565b6020808252818101527f506572736f6e613a204e6f2070656e64696e6720636572746966696361746573604082015260600190565b6020808252818101527f506572736f6e613a20446f63756d656e7420616c726561647920616464656421604082015260600190565b6020808252602f908201527f506572736f6e613a2041646472657373206973206e6f7420726567697374657260408201526e32b21030b9903b30b634b230ba37b960891b606082015260800190565b60208082526021908201527f506572736f6e613a2056616c69646174696f6e206e6f742072657175657374656040820152601960fa1b606082015260800190565b6020808252818101527f4f776e61626c653a2063616c6c6572206973206e6f7420746865206f776e6572604082015260600190565b60208082526023908201527f506572736f6e613a20446f63756d656e74206d757374206e6f7420626520656d60408201526270747960e81b606082015260800190565b600060ff84168252604060208301526126526040830184612133565b949350505050565b600060ff85168252836020830152606060408301526122b76060830184612133565b6040518181016001600160401b038111828210171561269a57600080fd5b604052919050565b60006001600160401b038211156126b7578081fd5b5060209081020190565b801515811461074257600080fdfea2646970667358221220b119c366ad916490616adb51e1e8a907c209f81ee175bdf50d739bcc717d329564736f6c63430007010033",
  "immutableReferences": {},
  "source": "// SPDX-License-Identifier: GPL-3.0-or-later\r\n\r\npragma solidity ^0.7.0;\r\npragma experimental ABIEncoderV2;\r\n\r\nimport \"./vendor/Ownable.sol\";\r\nimport \"./vendor/AccessControl.sol\";\r\n\r\nimport \"./interfaces/IPersona.sol\";\r\nimport \"./interfaces/IRegistry.sol\";\r\nimport \"./interfaces/IValidator.sol\";\r\n\r\nimport \"@nomiclabs/buidler/console.sol\";\r\n\r\ncontract Persona is Ownable, IPersona {\r\n\t//Contract Info\r\n\taddress public registry;\r\n\tbytes32 public name;\r\n\r\n\t//Documents Storage\r\n\tbytes32[] public documents;\r\n\tmapping(bytes32 => FieldInfo) public personaInfos;\r\n\r\n\t//Certificates Storage\r\n\tCertificate[] public certificates;\r\n\tCertificate[] pendingCertificates;\r\n\r\n\t//Documents Objects\r\n\tenum StatusValidation {NotEvaluated, PendingValidation, Validated, NotValidated}\r\n\r\n\tstruct FieldInfo {\r\n\t\tstring baseValue;\r\n\t\tbytes32 documentValueHash;\r\n\t\tbytes32[] documentHashes;\r\n\t\taddress[] validators;\r\n\t\tmapping(address => ValidatorsAnswer) validatorsAnswersMap;\r\n\t}\r\n\r\n\tstruct ValidatorsAnswer {\r\n\t\tStatusValidation validation;\r\n\t\tuint256 validationTimestamp;\r\n\t\tstring signature;\r\n\t}\r\n\r\n\t//Certificates Objects\r\n\tstruct Certificate {\r\n\t\taddress issuer;\r\n\t\tbytes32 givenName;\r\n\t\tstring value;\r\n\t\tstring content;\r\n\t\tstring signature;\r\n\t\tuint256 timestamp;\r\n\t}\r\n\r\n\t//Constructor\r\n\tconstructor(address _registry, bytes32 _name) {\r\n\t\tname = _name;\r\n\t\tregistry = _registry;\r\n\t}\r\n\r\n\t//Events\r\n\tevent personaAskToValidate(\r\n\t\taddress indexed validatorAddress,\r\n\t\tbytes32 indexed documentType,\r\n\t\tstring[] documentLinks,\r\n\t\tstring documentValue\r\n\t);\r\n\r\n\tevent validatorAnswerValidation(bytes32 indexed documentType, uint8 status, uint256 indexed timestamp, string signature);\r\n\r\n\t//View - Documents\r\n\r\n\tfunction getDocuments() public view returns (bytes32[] memory){\r\n\t\treturn documents;\r\n\t}\r\n\r\n\tfunction getValidationStatus(bytes32 documentType, address validator)\r\n\t\tpublic\r\n\t\tview\r\n\t\treturns (\r\n\t\t\tuint8,\r\n\t\t\tuint256,\r\n\t\t\tstring memory\r\n\t\t)\r\n\t{\r\n\t\treturn (\r\n\t\t\tuint8(personaInfos[documentType].validatorsAnswersMap[validator].validation),\r\n\t\t\tpersonaInfos[documentType].validatorsAnswersMap[validator].validationTimestamp,\r\n\t\t\tpersonaInfos[documentType].validatorsAnswersMap[validator].signature\r\n\t\t);\r\n\t}\r\n\r\n\tfunction getValidators(bytes32 documentType) public view returns (address[] memory) {\r\n\t\treturn personaInfos[documentType].validators;\r\n\t}\r\n\r\n\tfunction getDocumentHashes(bytes32 documentType) public view returns (bytes32[] memory) {\r\n\t\treturn personaInfos[documentType].documentHashes;\r\n\t}\r\n\r\n\tfunction personaFieldExists(bytes32 documentType) public view returns (bool) {\r\n\t\treturn personaInfos[documentType].documentValueHash != bytes32(\"\");\r\n\t}\r\n\r\n\t//View - Certificates\r\n\r\n\tfunction getCertificatesCount() public view returns (uint256) {\r\n\t\treturn certificates.length;\r\n\t}\r\n\r\n\tfunction getPendingCertificatesCount() public view onlyOwner returns (uint256) {\r\n\t\treturn pendingCertificates.length;\r\n\t}\r\n\r\n\tfunction getCertificate(uint256 index)\r\n\t\tpublic\r\n\t\tview\r\n\t\treturns (\r\n\t\t\taddress,\r\n\t\t\tbytes32,\r\n\t\t\tstring memory,\r\n\t\t\tstring memory,\r\n\t\t\tstring memory,\r\n\t\t\tuint256\r\n\t\t)\r\n\t{\r\n\t\tuint256 length = certificates.length;\r\n\t\tif (index >= length) return (address(0), bytes32(\"\"), \"\", \"\", \"\", 0);\r\n\t\treturn (\r\n\t\t\tcertificates[index].issuer,\r\n\t\t\tcertificates[index].givenName,\r\n\t\t\tcertificates[index].value,\r\n\t\t\tcertificates[index].content,\r\n\t\t\tcertificates[index].signature,\r\n\t\t\tcertificates[index].timestamp\r\n\t\t);\r\n\t}\r\n\r\n\tfunction getLastPendingCertificate()\r\n\t\tpublic\r\n\t\tview\r\n\t\tonlyOwner\r\n\t\treturns (\r\n\t\t\taddress,\r\n\t\t\tbytes32,\r\n\t\t\tstring memory,\r\n\t\t\tstring memory,\r\n\t\t\tstring memory,\r\n\t\t\tuint256\r\n\t\t)\r\n\t{\r\n\t\tuint256 length = pendingCertificates.length;\r\n\t\tif (length == 0) return (address(0), bytes32(\"\"), \"\", \"\", \"\", 0);\r\n\t\treturn (\r\n\t\t\tpendingCertificates[length - 1].issuer,\r\n\t\t\tpendingCertificates[length - 1].givenName,\r\n\t\t\tpendingCertificates[length - 1].value,\r\n\t\t\tpendingCertificates[length - 1].content,\r\n\t\t\tpendingCertificates[length - 1].signature,\r\n\t\t\tpendingCertificates[length - 1].timestamp\r\n\t\t);\r\n\t}\r\n\r\n\t//Actions - Contract Info\r\n\r\n\tfunction changeName(bytes32 _name) public onlyOwner {\r\n\t\tname = _name;\r\n\t}\r\n\r\n\tfunction transferOwnershipPersona(address newOwner) public override onlyOwner {\r\n\t\trequire(documents.length == 0, \"Persona: Persona must be empty to transfer\");\r\n\t\tif (_msgSender() != registry) IRegistry(registry).updatePersonaTransfer(owner(), newOwner);\r\n\t\ttransferOwnership(newOwner);\r\n\t}\r\n\r\n\t//Actions - Documents\r\n\r\n\tfunction addField(\r\n\t\tbytes32 documentType,\r\n\t\tstring memory baseValue,\r\n\t\tbytes32 documentValueHash,\r\n\t\tbytes32[] memory documentHashes\r\n\t) public onlyOwner {\r\n\t\trequire(!personaFieldExists(documentType), \"Persona: Document already added!\");\r\n\t\trequire(documentValueHash != bytes32(\"\"), \"Persona: Document must not be empty\");\r\n\t\tpersonaInfos[documentType].baseValue = baseValue;\r\n\t\tpersonaInfos[documentType].documentHashes = documentHashes;\r\n\t\tpersonaInfos[documentType].documentValueHash = documentValueHash;\r\n\t\tdocuments.push(documentType);\r\n\t}\r\n\r\n\tfunction replaceField(\r\n\t\tbytes32 documentType,\r\n\t\tstring memory baseValue,\r\n\t\tbytes32 documentValueHash,\r\n\t\tbytes32[] memory _documentHashes\r\n\t) public onlyOwner {\r\n\t\trequire(documentValueHash != bytes32(\"\"), \"Persona: Document must not be empty\");\r\n\t\tpersonaInfos[documentType].baseValue = baseValue;\r\n\t\tpersonaInfos[documentType].documentHashes = _documentHashes;\r\n\t\tpersonaInfos[documentType].documentValueHash = documentValueHash;\r\n\t\tpersonaInfos[documentType].validators = new address[](0);\r\n\t}\r\n\r\n\tfunction askToValidate(\r\n\t\taddress validatorAddress,\r\n\t\tbytes32 documentType,\r\n\t\tstring[] memory documentLinks,\r\n\t\tstring memory documentValue\r\n\t) public onlyOwner {\r\n\t\trequire(personaFieldExists(documentType), \"Persona: Document not added\");\r\n\t\trequire(IRegistry(registry).isValidator(validatorAddress), \"Persona: Address is not registered as validator\");\r\n\t\trequire(\r\n\t\t\tpersonaInfos[documentType].validatorsAnswersMap[validatorAddress].validation == StatusValidation.NotEvaluated,\r\n\t\t\t\"Persona: Validation already requested\"\r\n\t\t);\r\n\t\tIValidator(validatorAddress).askValidation(\r\n\t\t\tdocumentType,\r\n\t\t\tdocumentLinks,\r\n\t\t\tpersonaInfos[documentType].documentHashes,\r\n\t\t\tdocumentValue,\r\n\t\t\tpersonaInfos[documentType].documentValueHash\r\n\t\t);\r\n\t\tpersonaInfos[documentType].validators.push(validatorAddress);\r\n\t\tpersonaInfos[documentType].validatorsAnswersMap[validatorAddress] = ValidatorsAnswer({\r\n\t\t\tvalidation: StatusValidation.PendingValidation,\r\n\t\t\tvalidationTimestamp: 0,\r\n\t\t\tsignature: \"\"\r\n\t\t});\r\n\t\temit personaAskToValidate(validatorAddress, documentType, documentLinks, documentValue);\r\n\t}\r\n\r\n\t//Actions - Documents - External Calls\r\n\r\n\tfunction validatorAnswer(\r\n\t\tbytes32 documentType,\r\n\t\tuint8 status,\r\n\t\tuint256 timestamp,\r\n\t\tstring memory signature\r\n\t) external override {\r\n\t\trequire(\r\n\t\t\tpersonaInfos[documentType].validatorsAnswersMap[_msgSender()].validation == StatusValidation.PendingValidation,\r\n\t\t\t\"Persona: Validation not requested\"\r\n\t\t);\r\n\t\tpersonaInfos[documentType].validatorsAnswersMap[_msgSender()].validation = StatusValidation(status);\r\n\t\tpersonaInfos[documentType].validatorsAnswersMap[_msgSender()].validationTimestamp = timestamp;\r\n\t\tpersonaInfos[documentType].validatorsAnswersMap[_msgSender()].signature = signature;\r\n\t\temit validatorAnswerValidation(documentType, status, timestamp, signature);\r\n\t}\r\n\r\n\t//Actions - Certificates\r\n\r\n\t//Certificates are processed in LIFO\r\n\tfunction processLastPendingCertificate(bool approved) public onlyOwner {\r\n\t\trequire(pendingCertificates.length > 0, \"Persona: No pending certificates\");\r\n\t\tif (approved) certificates.push(pendingCertificates[pendingCertificates.length - 1]);\r\n\t\tpendingCertificates.pop();\r\n\t}\r\n\r\n\t//Give certificate using the Persona contract (signed with the owner)\r\n\tfunction giveCertificateTo(\r\n\t\taddress persona,\r\n\t\tbytes32 givenName,\r\n\t\tstring memory value,\r\n\t\tstring memory content,\r\n\t\tstring memory signature\r\n\t) public onlyOwner {\r\n\t\tIPersona(persona).giveCertificate(givenName, value, content, signature);\r\n\t}\r\n\r\n\t//Actions - Certificates - External Calls\r\n\r\n\tfunction giveCertificate(\r\n\t\tbytes32 givenName,\r\n\t\tstring memory value,\r\n\t\tstring memory content,\r\n\t\tstring memory signature\r\n\t) external override {\r\n\t\tpendingCertificates.push(Certificate(_msgSender(), givenName, value, content, signature, block.timestamp));\r\n\t}\r\n}\r\n",
  "sourcePath": "/mnt/e/Repositories/seborga/registry/smart-contracts/contracts/Persona.sol",
  "compiler": {
    "name": "solc",
    "version": "0.7.1+commit.f4a555be.Emscripten.clang"
  },
  "schemaVersion": "3.1.0",
  "updatedAt": "2020-09-09T12:41:36.585Z",
  "devdoc": {
    "kind": "dev",
    "methods": {
      "owner()": {
        "details": "Returns the address of the current owner."
      },
      "renounceOwnership()": {
        "details": "Leaves the contract without owner. It will not be possible to call `onlyOwner` functions anymore. Can only be called by the current owner. NOTE: Renouncing ownership will leave the contract without an owner, thereby removing any functionality that is only available to the owner."
      },
      "transferOwnership(address)": {
        "details": "Transfers ownership of the contract to a new account (`newOwner`). Can only be called by the current owner."
      }
    },
    "version": 1
  },
  "userdoc": {
    "kind": "user",
    "methods": {},
    "version": 1
  }
}